{
  "_format": "hh-sol-artifact-1",
  "contractName": "IdentityStorage",
  "sourceName": "contracts/testidentity.sol",
  "abi": [
    {
      "anonymous": false,
      "inputs": [
        {
          "indexed": true,
          "internalType": "address",
          "name": "user",
          "type": "address"
        },
        {
          "indexed": false,
          "internalType": "string",
          "name": "name",
          "type": "string"
        },
        {
          "indexed": false,
          "internalType": "uint256",
          "name": "age",
          "type": "uint256"
        },
        {
          "indexed": false,
          "internalType": "string",
          "name": "email",
          "type": "string"
        }
      ],
      "name": "IdentityCreated",
      "type": "event"
    },
    {
      "anonymous": false,
      "inputs": [
        {
          "indexed": true,
          "internalType": "address",
          "name": "user",
          "type": "address"
        },
        {
          "indexed": false,
          "internalType": "string",
          "name": "name",
          "type": "string"
        },
        {
          "indexed": false,
          "internalType": "uint256",
          "name": "age",
          "type": "uint256"
        },
        {
          "indexed": false,
          "internalType": "string",
          "name": "email",
          "type": "string"
        }
      ],
      "name": "IdentityUpdated",
      "type": "event"
    },
    {
      "inputs": [
        {
          "internalType": "address",
          "name": "_user",
          "type": "address"
        }
      ],
      "name": "getIdentity",
      "outputs": [
        {
          "internalType": "string",
          "name": "",
          "type": "string"
        },
        {
          "internalType": "uint256",
          "name": "",
          "type": "uint256"
        },
        {
          "internalType": "string",
          "name": "",
          "type": "string"
        }
      ],
      "stateMutability": "view",
      "type": "function"
    },
    {
      "inputs": [],
      "name": "getMyIdentity",
      "outputs": [
        {
          "internalType": "string",
          "name": "",
          "type": "string"
        },
        {
          "internalType": "uint256",
          "name": "",
          "type": "uint256"
        },
        {
          "internalType": "string",
          "name": "",
          "type": "string"
        }
      ],
      "stateMutability": "view",
      "type": "function"
    },
    {
      "inputs": [
        {
          "internalType": "string",
          "name": "_name",
          "type": "string"
        },
        {
          "internalType": "uint256",
          "name": "_age",
          "type": "uint256"
        },
        {
          "internalType": "string",
          "name": "_email",
          "type": "string"
        }
      ],
      "name": "setIdentity",
      "outputs": [],
      "stateMutability": "nonpayable",
      "type": "function"
    }
  ],
  "bytecode": "0x608060405234801561001057600080fd5b50610d45806100206000396000f3fe608060405234801561001057600080fd5b50600436106100415760003560e01c806324bbc7b7146100465780632fea7b8114610062578063b9d6964714610094575b600080fd5b610060600480360381019061005b91906108b9565b6100b4565b005b61007c60048036038101906100779190610890565b61034b565b60405161008b93929190610a80565b60405180910390f35b61009c610554565b6040516100ab93929190610a80565b60405180910390f35b60008351116100f8576040517f08c379a00000000000000000000000000000000000000000000000000000000081526004016100ef90610b25565b60405180910390fd5b6000821161013b576040517f08c379a000000000000000000000000000000000000000000000000000000000815260040161013290610ae5565b60405180910390fd5b600081511161017f576040517f08c379a000000000000000000000000000000000000000000000000000000000815260040161017690610ac5565b60405180910390fd5b6040518060800160405280848152602001838152602001828152602001600115158152506000803373ffffffffffffffffffffffffffffffffffffffff1673ffffffffffffffffffffffffffffffffffffffff16815260200190815260200160002060008201518160000190805190602001906101fd92919061075b565b5060208201518160010155604082015181600201908051906020019061022492919061075b565b5060608201518160030160006101000a81548160ff0219169083151502179055509050506000803373ffffffffffffffffffffffffffffffffffffffff1673ffffffffffffffffffffffffffffffffffffffff16815260200190815260200160002060030160009054906101000a900460ff16156102f3573373ffffffffffffffffffffffffffffffffffffffff167fcb5dd4be85415836299ab7f6d6026b1cbc7d52d44e7bd85e1db23c485bb6ba5a8484846040516102e693929190610a80565b60405180910390a2610346565b3373ffffffffffffffffffffffffffffffffffffffff167f76179712e8d8c5ea0bdfd4547adbf404d258a0ffc376a85109cab1edae2f497b84848460405161033d93929190610a80565b60405180910390a25b505050565b6060600060606000808573ffffffffffffffffffffffffffffffffffffffff1673ffffffffffffffffffffffffffffffffffffffff16815260200190815260200160002060030160009054906101000a900460ff166103df576040517f08c379a00000000000000000000000000000000000000000000000000000000081526004016103d690610b05565b60405180910390fd5b60008060008673ffffffffffffffffffffffffffffffffffffffff1673ffffffffffffffffffffffffffffffffffffffff16815260200190815260200160002090508060000181600101548260020182805461043a90610c40565b80601f016020809104026020016040519081016040528092919081815260200182805461046690610c40565b80156104b35780601f10610488576101008083540402835291602001916104b3565b820191906000526020600020905b81548152906001019060200180831161049657829003601f168201915b505050505092508080546104c690610c40565b80601f01602080910402602001604051908101604052809291908181526020018280546104f290610c40565b801561053f5780601f106105145761010080835404028352916020019161053f565b820191906000526020600020905b81548152906001019060200180831161052257829003601f168201915b50505050509050935093509350509193909250565b6060600060606000803373ffffffffffffffffffffffffffffffffffffffff1673ffffffffffffffffffffffffffffffffffffffff16815260200190815260200160002060030160009054906101000a900460ff166105e8576040517f08c379a00000000000000000000000000000000000000000000000000000000081526004016105df90610b05565b60405180910390fd5b60008060003373ffffffffffffffffffffffffffffffffffffffff1673ffffffffffffffffffffffffffffffffffffffff16815260200190815260200160002090508060000181600101548260020182805461064390610c40565b80601f016020809104026020016040519081016040528092919081815260200182805461066f90610c40565b80156106bc5780601f10610691576101008083540402835291602001916106bc565b820191906000526020600020905b81548152906001019060200180831161069f57829003601f168201915b505050505092508080546106cf90610c40565b80601f01602080910402602001604051908101604052809291908181526020018280546106fb90610c40565b80156107485780601f1061071d57610100808354040283529160200191610748565b820191906000526020600020905b81548152906001019060200180831161072b57829003601f168201915b5050505050905093509350935050909192565b82805461076790610c40565b90600052602060002090601f01602090048101928261078957600085556107d0565b82601f106107a257805160ff19168380011785556107d0565b828001600101855582156107d0579182015b828111156107cf5782518255916020019190600101906107b4565b5b5090506107dd91906107e1565b5090565b5b808211156107fa5760008160009055506001016107e2565b5090565b600061081161080c84610b76565b610b45565b90508281526020810184848401111561082957600080fd5b610834848285610bfe565b509392505050565b60008135905061084b81610ce1565b92915050565b600082601f83011261086257600080fd5b81356108728482602086016107fe565b91505092915050565b60008135905061088a81610cf8565b92915050565b6000602082840312156108a257600080fd5b60006108b08482850161083c565b91505092915050565b6000806000606084860312156108ce57600080fd5b600084013567ffffffffffffffff8111156108e857600080fd5b6108f486828701610851565b93505060206109058682870161087b565b925050604084013567ffffffffffffffff81111561092257600080fd5b61092e86828701610851565b9150509250925092565b600061094382610ba6565b61094d8185610bb1565b935061095d818560208601610c0d565b61096681610cd0565b840191505092915050565b600061097e601183610bb1565b91507f456d61696c2069732072657175697265640000000000000000000000000000006000830152602082019050919050565b60006109be601d83610bb1565b91507f416765206d7573742062652067726561746572207468616e207a65726f0000006000830152602082019050919050565b60006109fe601783610bb1565b91507f4964656e7469747920646f6573206e6f742065786973740000000000000000006000830152602082019050919050565b6000610a3e601083610bb1565b91507f4e616d65206973207265717569726564000000000000000000000000000000006000830152602082019050919050565b610a7a81610bf4565b82525050565b60006060820190508181036000830152610a9a8186610938565b9050610aa96020830185610a71565b8181036040830152610abb8184610938565b9050949350505050565b60006020820190508181036000830152610ade81610971565b9050919050565b60006020820190508181036000830152610afe816109b1565b9050919050565b60006020820190508181036000830152610b1e816109f1565b9050919050565b60006020820190508181036000830152610b3e81610a31565b9050919050565b6000604051905081810181811067ffffffffffffffff82111715610b6c57610b6b610ca1565b5b8060405250919050565b600067ffffffffffffffff821115610b9157610b90610ca1565b5b601f19601f8301169050602081019050919050565b600081519050919050565b600082825260208201905092915050565b6000610bcd82610bd4565b9050919050565b600073ffffffffffffffffffffffffffffffffffffffff82169050919050565b6000819050919050565b82818337600083830152505050565b60005b83811015610c2b578082015181840152602081019050610c10565b83811115610c3a576000848401525b50505050565b60006002820490506001821680610c5857607f821691505b60208210811415610c6c57610c6b610c72565b5b50919050565b7f4e487b7100000000000000000000000000000000000000000000000000000000600052602260045260246000fd5b7f4e487b7100000000000000000000000000000000000000000000000000000000600052604160045260246000fd5b6000601f19601f8301169050919050565b610cea81610bc2565b8114610cf557600080fd5b50565b610d0181610bf4565b8114610d0c57600080fd5b5056fea264697066735822122041e3a1d47a49a11d34bb3e0104b6de7aa6c572f2bcb70ebf99f2e50ac654935664736f6c63430008000033",
  "linkReferences": {},
  "deployedLinkReferences": {}
}